{
  "contractName": "NftMarket",
  "abi": [
    {
      "inputs": [],
      "stateMutability": "nonpayable",
      "type": "constructor"
    },
    {
      "anonymous": false,
      "inputs": [
        {
          "indexed": true,
          "internalType": "address",
          "name": "owner",
          "type": "address"
        },
        {
          "indexed": true,
          "internalType": "address",
          "name": "approved",
          "type": "address"
        },
        {
          "indexed": true,
          "internalType": "uint256",
          "name": "tokenId",
          "type": "uint256"
        }
      ],
      "name": "Approval",
      "type": "event"
    },
    {
      "anonymous": false,
      "inputs": [
        {
          "indexed": true,
          "internalType": "address",
          "name": "owner",
          "type": "address"
        },
        {
          "indexed": true,
          "internalType": "address",
          "name": "operator",
          "type": "address"
        },
        {
          "indexed": false,
          "internalType": "bool",
          "name": "approved",
          "type": "bool"
        }
      ],
      "name": "ApprovalForAll",
      "type": "event"
    },
    {
      "anonymous": false,
      "inputs": [
        {
          "indexed": false,
          "internalType": "uint256",
          "name": "tokenId",
          "type": "uint256"
        },
        {
          "indexed": false,
          "internalType": "uint256",
          "name": "price",
          "type": "uint256"
        },
        {
          "indexed": false,
          "internalType": "address",
          "name": "creator",
          "type": "address"
        },
        {
          "indexed": false,
          "internalType": "bool",
          "name": "isListed",
          "type": "bool"
        }
      ],
      "name": "NftItemCreated",
      "type": "event"
    },
    {
      "anonymous": false,
      "inputs": [
        {
          "indexed": true,
          "internalType": "address",
          "name": "previousOwner",
          "type": "address"
        },
        {
          "indexed": true,
          "internalType": "address",
          "name": "newOwner",
          "type": "address"
        }
      ],
      "name": "OwnershipTransferred",
      "type": "event"
    },
    {
      "anonymous": false,
      "inputs": [
        {
          "indexed": true,
          "internalType": "address",
          "name": "from",
          "type": "address"
        },
        {
          "indexed": true,
          "internalType": "address",
          "name": "to",
          "type": "address"
        },
        {
          "indexed": true,
          "internalType": "uint256",
          "name": "tokenId",
          "type": "uint256"
        }
      ],
      "name": "Transfer",
      "type": "event"
    },
    {
      "inputs": [
        {
          "internalType": "address",
          "name": "to",
          "type": "address"
        },
        {
          "internalType": "uint256",
          "name": "tokenId",
          "type": "uint256"
        }
      ],
      "name": "approve",
      "outputs": [],
      "stateMutability": "nonpayable",
      "type": "function"
    },
    {
      "inputs": [
        {
          "internalType": "address",
          "name": "owner",
          "type": "address"
        }
      ],
      "name": "balanceOf",
      "outputs": [
        {
          "internalType": "uint256",
          "name": "",
          "type": "uint256"
        }
      ],
      "stateMutability": "view",
      "type": "function",
      "constant": true
    },
    {
      "inputs": [
        {
          "internalType": "uint256",
          "name": "tokenId",
          "type": "uint256"
        }
      ],
      "name": "getApproved",
      "outputs": [
        {
          "internalType": "address",
          "name": "",
          "type": "address"
        }
      ],
      "stateMutability": "view",
      "type": "function",
      "constant": true
    },
    {
      "inputs": [
        {
          "internalType": "address",
          "name": "owner",
          "type": "address"
        },
        {
          "internalType": "address",
          "name": "operator",
          "type": "address"
        }
      ],
      "name": "isApprovedForAll",
      "outputs": [
        {
          "internalType": "bool",
          "name": "",
          "type": "bool"
        }
      ],
      "stateMutability": "view",
      "type": "function",
      "constant": true
    },
    {
      "inputs": [],
      "name": "listingPrice",
      "outputs": [
        {
          "internalType": "uint256",
          "name": "",
          "type": "uint256"
        }
      ],
      "stateMutability": "view",
      "type": "function",
      "constant": true
    },
    {
      "inputs": [],
      "name": "name",
      "outputs": [
        {
          "internalType": "string",
          "name": "",
          "type": "string"
        }
      ],
      "stateMutability": "view",
      "type": "function",
      "constant": true
    },
    {
      "inputs": [],
      "name": "owner",
      "outputs": [
        {
          "internalType": "address",
          "name": "",
          "type": "address"
        }
      ],
      "stateMutability": "view",
      "type": "function",
      "constant": true
    },
    {
      "inputs": [
        {
          "internalType": "uint256",
          "name": "tokenId",
          "type": "uint256"
        }
      ],
      "name": "ownerOf",
      "outputs": [
        {
          "internalType": "address",
          "name": "",
          "type": "address"
        }
      ],
      "stateMutability": "view",
      "type": "function",
      "constant": true
    },
    {
      "inputs": [],
      "name": "renounceOwnership",
      "outputs": [],
      "stateMutability": "nonpayable",
      "type": "function"
    },
    {
      "inputs": [
        {
          "internalType": "address",
          "name": "from",
          "type": "address"
        },
        {
          "internalType": "address",
          "name": "to",
          "type": "address"
        },
        {
          "internalType": "uint256",
          "name": "tokenId",
          "type": "uint256"
        }
      ],
      "name": "safeTransferFrom",
      "outputs": [],
      "stateMutability": "nonpayable",
      "type": "function"
    },
    {
      "inputs": [
        {
          "internalType": "address",
          "name": "from",
          "type": "address"
        },
        {
          "internalType": "address",
          "name": "to",
          "type": "address"
        },
        {
          "internalType": "uint256",
          "name": "tokenId",
          "type": "uint256"
        },
        {
          "internalType": "bytes",
          "name": "data",
          "type": "bytes"
        }
      ],
      "name": "safeTransferFrom",
      "outputs": [],
      "stateMutability": "nonpayable",
      "type": "function"
    },
    {
      "inputs": [
        {
          "internalType": "address",
          "name": "operator",
          "type": "address"
        },
        {
          "internalType": "bool",
          "name": "approved",
          "type": "bool"
        }
      ],
      "name": "setApprovalForAll",
      "outputs": [],
      "stateMutability": "nonpayable",
      "type": "function"
    },
    {
      "inputs": [
        {
          "internalType": "bytes4",
          "name": "interfaceId",
          "type": "bytes4"
        }
      ],
      "name": "supportsInterface",
      "outputs": [
        {
          "internalType": "bool",
          "name": "",
          "type": "bool"
        }
      ],
      "stateMutability": "view",
      "type": "function",
      "constant": true
    },
    {
      "inputs": [],
      "name": "symbol",
      "outputs": [
        {
          "internalType": "string",
          "name": "",
          "type": "string"
        }
      ],
      "stateMutability": "view",
      "type": "function",
      "constant": true
    },
    {
      "inputs": [
        {
          "internalType": "uint256",
          "name": "tokenId",
          "type": "uint256"
        }
      ],
      "name": "tokenURI",
      "outputs": [
        {
          "internalType": "string",
          "name": "",
          "type": "string"
        }
      ],
      "stateMutability": "view",
      "type": "function",
      "constant": true
    },
    {
      "inputs": [
        {
          "internalType": "address",
          "name": "from",
          "type": "address"
        },
        {
          "internalType": "address",
          "name": "to",
          "type": "address"
        },
        {
          "internalType": "uint256",
          "name": "tokenId",
          "type": "uint256"
        }
      ],
      "name": "transferFrom",
      "outputs": [],
      "stateMutability": "nonpayable",
      "type": "function"
    },
    {
      "inputs": [
        {
          "internalType": "address",
          "name": "newOwner",
          "type": "address"
        }
      ],
      "name": "transferOwnership",
      "outputs": [],
      "stateMutability": "nonpayable",
      "type": "function"
    },
    {
      "inputs": [
        {
          "internalType": "address",
          "name": "orgAdd",
          "type": "address"
        }
      ],
      "name": "setTestOrg",
      "outputs": [
        {
          "internalType": "bool",
          "name": "",
          "type": "bool"
        }
      ],
      "stateMutability": "nonpayable",
      "type": "function"
    },
    {
      "inputs": [
        {
          "internalType": "address",
          "name": "orgAdd",
          "type": "address"
        }
      ],
      "name": "containTestOrg",
      "outputs": [
        {
          "internalType": "bool",
          "name": "",
          "type": "bool"
        }
      ],
      "stateMutability": "view",
      "type": "function",
      "constant": true
    },
    {
      "inputs": [
        {
          "internalType": "address",
          "name": "testOrg",
          "type": "address"
        },
        {
          "internalType": "string",
          "name": "data",
          "type": "string"
        },
        {
          "internalType": "bytes32",
          "name": "dataHash",
          "type": "bytes32"
        },
        {
          "internalType": "bytes",
          "name": "orgSign",
          "type": "bytes"
        },
        {
          "internalType": "uint256",
          "name": "firstProportion",
          "type": "uint256"
        },
        {
          "internalType": "bool",
          "name": "sustainProportion",
          "type": "bool"
        }
      ],
      "name": "setNftOrgInfo",
      "outputs": [
        {
          "internalType": "bool",
          "name": "",
          "type": "bool"
        }
      ],
      "stateMutability": "nonpayable",
      "type": "function"
    },
    {
      "inputs": [
        {
          "internalType": "uint256",
          "name": "newPrice",
          "type": "uint256"
        }
      ],
      "name": "setListingPrice",
      "outputs": [],
      "stateMutability": "nonpayable",
      "type": "function"
    },
    {
      "inputs": [
        {
          "internalType": "uint256",
          "name": "tokenId",
          "type": "uint256"
        }
      ],
      "name": "getNftItem",
      "outputs": [
        {
          "components": [
            {
              "internalType": "enum NftMarket.NftState",
              "name": "state",
              "type": "uint8"
            },
            {
              "internalType": "uint256",
              "name": "tokenId",
              "type": "uint256"
            },
            {
              "internalType": "uint256",
              "name": "price",
              "type": "uint256"
            },
            {
              "internalType": "uint256",
              "name": "maxPrice",
              "type": "uint256"
            },
            {
              "internalType": "address",
              "name": "creator",
              "type": "address"
            },
            {
              "internalType": "bool",
              "name": "isListed",
              "type": "bool"
            },
            {
              "internalType": "uint256",
              "name": "txCount",
              "type": "uint256"
            },
            {
              "internalType": "address",
              "name": "testOrg",
              "type": "address"
            },
            {
              "internalType": "string",
              "name": "data",
              "type": "string"
            },
            {
              "internalType": "bytes32",
              "name": "dataHash",
              "type": "bytes32"
            },
            {
              "internalType": "bytes",
              "name": "orgSign",
              "type": "bytes"
            },
            {
              "internalType": "uint256",
              "name": "firstProportion",
              "type": "uint256"
            },
            {
              "internalType": "bool",
              "name": "sustainProportion",
              "type": "bool"
            },
            {
              "internalType": "bytes",
              "name": "sign",
              "type": "bytes"
            },
            {
              "internalType": "uint256",
              "name": "proportion",
              "type": "uint256"
            },
            {
              "internalType": "string",
              "name": "encryptedKey",
              "type": "string"
            },
            {
              "internalType": "address",
              "name": "consumer",
              "type": "address"
            },
            {
              "internalType": "bytes",
              "name": "consumerSign",
              "type": "bytes"
            },
            {
              "internalType": "string",
              "name": "consumerKey",
              "type": "string"
            },
            {
              "internalType": "string",
              "name": "consumerPubKey",
              "type": "string"
            }
          ],
          "internalType": "struct NftMarket.NftItem",
          "name": "",
          "type": "tuple"
        }
      ],
      "stateMutability": "view",
      "type": "function",
      "constant": true
    },
    {
      "inputs": [],
      "name": "listedItemsCount",
      "outputs": [
        {
          "internalType": "uint256",
          "name": "",
          "type": "uint256"
        }
      ],
      "stateMutability": "view",
      "type": "function",
      "constant": true
    },
    {
      "inputs": [
        {
          "internalType": "string",
          "name": "tokenURI",
          "type": "string"
        }
      ],
      "name": "tokenURIExists",
      "outputs": [
        {
          "internalType": "bool",
          "name": "",
          "type": "bool"
        }
      ],
      "stateMutability": "view",
      "type": "function",
      "constant": true
    },
    {
      "inputs": [],
      "name": "totalSupply",
      "outputs": [
        {
          "internalType": "uint256",
          "name": "",
          "type": "uint256"
        }
      ],
      "stateMutability": "view",
      "type": "function",
      "constant": true
    },
    {
      "inputs": [
        {
          "internalType": "uint256",
          "name": "index",
          "type": "uint256"
        }
      ],
      "name": "tokenByIndex",
      "outputs": [
        {
          "internalType": "uint256",
          "name": "",
          "type": "uint256"
        }
      ],
      "stateMutability": "view",
      "type": "function",
      "constant": true
    },
    {
      "inputs": [
        {
          "internalType": "address",
          "name": "owner",
          "type": "address"
        },
        {
          "internalType": "uint256",
          "name": "index",
          "type": "uint256"
        }
      ],
      "name": "tokenOfOwnerByIndex",
      "outputs": [
        {
          "internalType": "uint256",
          "name": "",
          "type": "uint256"
        }
      ],
      "stateMutability": "view",
      "type": "function",
      "constant": true
    },
    {
      "inputs": [],
      "name": "getAllNftsOnSale",
      "outputs": [
        {
          "components": [
            {
              "internalType": "enum NftMarket.NftState",
              "name": "state",
              "type": "uint8"
            },
            {
              "internalType": "uint256",
              "name": "tokenId",
              "type": "uint256"
            },
            {
              "internalType": "uint256",
              "name": "price",
              "type": "uint256"
            },
            {
              "internalType": "uint256",
              "name": "maxPrice",
              "type": "uint256"
            },
            {
              "internalType": "address",
              "name": "creator",
              "type": "address"
            },
            {
              "internalType": "bool",
              "name": "isListed",
              "type": "bool"
            },
            {
              "internalType": "uint256",
              "name": "txCount",
              "type": "uint256"
            },
            {
              "internalType": "address",
              "name": "testOrg",
              "type": "address"
            },
            {
              "internalType": "string",
              "name": "data",
              "type": "string"
            },
            {
              "internalType": "bytes32",
              "name": "dataHash",
              "type": "bytes32"
            },
            {
              "internalType": "bytes",
              "name": "orgSign",
              "type": "bytes"
            },
            {
              "internalType": "uint256",
              "name": "firstProportion",
              "type": "uint256"
            },
            {
              "internalType": "bool",
              "name": "sustainProportion",
              "type": "bool"
            },
            {
              "internalType": "bytes",
              "name": "sign",
              "type": "bytes"
            },
            {
              "internalType": "uint256",
              "name": "proportion",
              "type": "uint256"
            },
            {
              "internalType": "string",
              "name": "encryptedKey",
              "type": "string"
            },
            {
              "internalType": "address",
              "name": "consumer",
              "type": "address"
            },
            {
              "internalType": "bytes",
              "name": "consumerSign",
              "type": "bytes"
            },
            {
              "internalType": "string",
              "name": "consumerKey",
              "type": "string"
            },
            {
              "internalType": "string",
              "name": "consumerPubKey",
              "type": "string"
            }
          ],
          "internalType": "struct NftMarket.NftItem[]",
          "name": "",
          "type": "tuple[]"
        }
      ],
      "stateMutability": "view",
      "type": "function",
      "constant": true
    },
    {
      "inputs": [],
      "name": "getOwnedNfts",
      "outputs": [
        {
          "components": [
            {
              "internalType": "enum NftMarket.NftState",
              "name": "state",
              "type": "uint8"
            },
            {
              "internalType": "uint256",
              "name": "tokenId",
              "type": "uint256"
            },
            {
              "internalType": "uint256",
              "name": "price",
              "type": "uint256"
            },
            {
              "internalType": "uint256",
              "name": "maxPrice",
              "type": "uint256"
            },
            {
              "internalType": "address",
              "name": "creator",
              "type": "address"
            },
            {
              "internalType": "bool",
              "name": "isListed",
              "type": "bool"
            },
            {
              "internalType": "uint256",
              "name": "txCount",
              "type": "uint256"
            },
            {
              "internalType": "address",
              "name": "testOrg",
              "type": "address"
            },
            {
              "internalType": "string",
              "name": "data",
              "type": "string"
            },
            {
              "internalType": "bytes32",
              "name": "dataHash",
              "type": "bytes32"
            },
            {
              "internalType": "bytes",
              "name": "orgSign",
              "type": "bytes"
            },
            {
              "internalType": "uint256",
              "name": "firstProportion",
              "type": "uint256"
            },
            {
              "internalType": "bool",
              "name": "sustainProportion",
              "type": "bool"
            },
            {
              "internalType": "bytes",
              "name": "sign",
              "type": "bytes"
            },
            {
              "internalType": "uint256",
              "name": "proportion",
              "type": "uint256"
            },
            {
              "internalType": "string",
              "name": "encryptedKey",
              "type": "string"
            },
            {
              "internalType": "address",
              "name": "consumer",
              "type": "address"
            },
            {
              "internalType": "bytes",
              "name": "consumerSign",
              "type": "bytes"
            },
            {
              "internalType": "string",
              "name": "consumerKey",
              "type": "string"
            },
            {
              "internalType": "string",
              "name": "consumerPubKey",
              "type": "string"
            }
          ],
          "internalType": "struct NftMarket.NftItem[]",
          "name": "",
          "type": "tuple[]"
        }
      ],
      "stateMutability": "view",
      "type": "function",
      "constant": true
    },
    {
      "inputs": [
        {
          "internalType": "string",
          "name": "tokenURI",
          "type": "string"
        },
        {
          "internalType": "uint256",
          "name": "price",
          "type": "uint256"
        },
        {
          "internalType": "bytes32",
          "name": "dataHash",
          "type": "bytes32"
        },
        {
          "internalType": "bytes",
          "name": "sign",
          "type": "bytes"
        },
        {
          "internalType": "uint256",
          "name": "proportion",
          "type": "uint256"
        },
        {
          "internalType": "string",
          "name": "encryptedKey",
          "type": "string"
        }
      ],
      "name": "mintToken",
      "outputs": [
        {
          "internalType": "uint256",
          "name": "",
          "type": "uint256"
        }
      ],
      "stateMutability": "payable",
      "type": "function",
      "payable": true
    },
    {
      "inputs": [
        {
          "internalType": "uint256",
          "name": "tokenId",
          "type": "uint256"
        },
        {
          "internalType": "bytes",
          "name": "consumerSign",
          "type": "bytes"
        },
        {
          "internalType": "string",
          "name": "consumerPubKey",
          "type": "string"
        }
      ],
      "name": "buyNft",
      "outputs": [
        {
          "internalType": "bool",
          "name": "",
          "type": "bool"
        }
      ],
      "stateMutability": "payable",
      "type": "function",
      "payable": true
    },
    {
      "inputs": [
        {
          "internalType": "uint256",
          "name": "tokenId",
          "type": "uint256"
        },
        {
          "internalType": "string",
          "name": "consumerKey",
          "type": "string"
        }
      ],
      "name": "confirmTx",
      "outputs": [
        {
          "internalType": "bool",
          "name": "",
          "type": "bool"
        }
      ],
      "stateMutability": "nonpayable",
      "type": "function"
    },
    {
      "inputs": [
        {
          "internalType": "uint256",
          "name": "tokenId",
          "type": "uint256"
        },
        {
          "internalType": "uint256",
          "name": "newPrice",
          "type": "uint256"
        }
      ],
      "name": "placeNftOnSale",
      "outputs": [],
      "stateMutability": "payable",
      "type": "function",
      "payable": true
    },
    {
      "inputs": [
        {
          "internalType": "bytes32",
          "name": "hash",
          "type": "bytes32"
        }
      ],
      "name": "_getNftItemByHash",
      "outputs": [
        {
          "components": [
            {
              "internalType": "enum NftMarket.NftState",
              "name": "state",
              "type": "uint8"
            },
            {
              "internalType": "uint256",
              "name": "tokenId",
              "type": "uint256"
            },
            {
              "internalType": "uint256",
              "name": "price",
              "type": "uint256"
            },
            {
              "internalType": "uint256",
              "name": "maxPrice",
              "type": "uint256"
            },
            {
              "internalType": "address",
              "name": "creator",
              "type": "address"
            },
            {
              "internalType": "bool",
              "name": "isListed",
              "type": "bool"
            },
            {
              "internalType": "uint256",
              "name": "txCount",
              "type": "uint256"
            },
            {
              "internalType": "address",
              "name": "testOrg",
              "type": "address"
            },
            {
              "internalType": "string",
              "name": "data",
              "type": "string"
            },
            {
              "internalType": "bytes32",
              "name": "dataHash",
              "type": "bytes32"
            },
            {
              "internalType": "bytes",
              "name": "orgSign",
              "type": "bytes"
            },
            {
              "internalType": "uint256",
              "name": "firstProportion",
              "type": "uint256"
            },
            {
              "internalType": "bool",
              "name": "sustainProportion",
              "type": "bool"
            },
            {
              "internalType": "bytes",
              "name": "sign",
              "type": "bytes"
            },
            {
              "internalType": "uint256",
              "name": "proportion",
              "type": "uint256"
            },
            {
              "internalType": "string",
              "name": "encryptedKey",
              "type": "string"
            },
            {
              "internalType": "address",
              "name": "consumer",
              "type": "address"
            },
            {
              "internalType": "bytes",
              "name": "consumerSign",
              "type": "bytes"
            },
            {
              "internalType": "string",
              "name": "consumerKey",
              "type": "string"
            },
            {
              "internalType": "string",
              "name": "consumerPubKey",
              "type": "string"
            }
          ],
          "internalType": "struct NftMarket.NftItem",
          "name": "",
          "type": "tuple"
        }
      ],
      "stateMutability": "view",
      "type": "function",
      "constant": true
    }
  ],
  "bytecode": "0x60806040526658d15e176280006008553480156200001c57600080fd5b50604080518082018252600a81526911d95b9bdb595cd3919560b21b60208083019182528351808501909452600484526311d3919560e21b9084015281519192916200006b91600091620000fa565b50805162000081906001906020840190620000fa565b5050506200009e62000098620000a460201b60201c565b620000a8565b620001dc565b3390565b600780546001600160a01b038381166001600160a01b0319831681179093556040519116919082907f8be0079c531659141344cd1fd0a4f28419497f9722a3daafe3b4186f6b6457e090600090a35050565b8280546200010890620001a0565b90600052602060002090601f0160209004810192826200012c576000855562000177565b82601f106200014757805160ff191683800117855562000177565b8280016001018555821562000177579182015b82811115620001775782518255916020019190600101906200015a565b506200018592915062000189565b5090565b5b808211156200018557600081556001016200018a565b600181811c90821680620001b557607f821691505b602082108103620001d657634e487b7160e01b600052602260045260246000fd5b50919050565b614e3b80620001ec6000396000f3fe6080604052600436106101895760003560e01c806301ffc9a71461018e57806306fdde03146101c3578063081812fc146101e5578063094ced201461021d578063095ea7b31461023d57806318160ddd1461025f57806321f422e51461027e57806323b872dd1461029157806324e36ce6146102b15780632f745c59146102d157806336b536be146102f157806342842e0e1461031357806343d32ae7146103335780634f6ccce7146103535780636352211e146103735780636f1a0af514610393578063708c4cfd146103c057806370a08231146103e057806370cbcb4314610400578063715018a6146104155780637c726b691461042a5780638da5cb5b1461044a57806395d89b411461045f578063a22cb46514610474578063aa51205814610494578063b88d4fde146104a7578063c78f19f9146104c7578063c87b56dd146104dd578063ccb4918d146104fd578063ce838d0314610512578063e985e9c514610525578063ee43c96d14610545578063f2fde38b14610565578063fe17920114610585575b600080fd5b34801561019a57600080fd5b506101ae6101a93660046142f3565b6105a5565b60405190151581526020015b60405180910390f35b3480156101cf57600080fd5b506101d86105f7565b6040516101ba9190614368565b3480156101f157600080fd5b5061020561020036600461437b565b610689565b6040516001600160a01b0390911681526020016101ba565b34801561022957600080fd5b506101ae6102383660046143b8565b6106b0565b34801561024957600080fd5b5061025d6102583660046143d3565b61076d565b005b34801561026b57600080fd5b506011545b6040519081526020016101ba565b61025d61028c3660046143fd565b610882565b34801561029d57600080fd5b5061025d6102ac36600461441f565b6109cf565b3480156102bd57600080fd5b506101ae6102cc3660046143b8565b610a00565b3480156102dd57600080fd5b506102706102ec3660046143d3565b610a1e565b3480156102fd57600080fd5b50610306610a70565b6040516101ba919061461e565b34801561031f57600080fd5b5061025d61032e36600461441f565b611045565b34801561033f57600080fd5b506101ae61034e366004614722565b611060565b34801561035f57600080fd5b5061027061036e36600461437b565b611090565b34801561037f57600080fd5b5061020561038e36600461437b565b6110de565b34801561039f57600080fd5b506103b36103ae36600461437b565b611112565b6040516101ba9190614756565b3480156103cc57600080fd5b506101ae6103db366004614769565b61160c565b3480156103ec57600080fd5b506102706103fb3660046143b8565b6117ae565b34801561040c57600080fd5b50610306611834565b34801561042157600080fd5b5061025d611dda565b34801561043657600080fd5b5061025d61044536600461437b565b611dee565b34801561045657600080fd5b50610205611e1b565b34801561046b57600080fd5b506101d8611e2a565b34801561048057600080fd5b5061025d61048f3660046147bf565b611e39565b6101ae6104a23660046147f2565b611e44565b3480156104b357600080fd5b5061025d6104c236600461485e565b6120ad565b3480156104d357600080fd5b5061027060085481565b3480156104e957600080fd5b506101d86104f836600461437b565b6120e5565b34801561050957600080fd5b506102706121f5565b6102706105203660046148c5565b612205565b34801561053157600080fd5b506101ae610540366004614968565b61233f565b34801561055157600080fd5b506103b361056036600461437b565b61236d565b34801561057157600080fd5b5061025d6105803660046143b8565b6123a7565b34801561059157600080fd5b506101ae6105a0366004614992565b612420565b60006001600160e01b031982166380ac58cd60e01b14806105d657506001600160e01b03198216635b5e139f60e01b145b806105f157506301ffc9a760e01b6001600160e01b03198316145b92915050565b60606000805461060690614a28565b80601f016020809104026020016040519081016040528092919081815260200182805461063290614a28565b801561067f5780601f106106545761010080835404028352916020019161067f565b820191906000526020600020905b81548152906001019060200180831161066257829003601f168201915b5050505050905090565b6000610694826127ab565b506000908152600460205260409020546001600160a01b031690565b60006106ba6127d0565b6001600160a01b0382166000908152600b602052604090205460ff1615156001036107405760405162461bcd60e51b815260206004820152602b60248201527f6f726741646420616c726561647920696e636c7564656420696e20746865207460448201526a195cdd13dc99c81b1a5cdd60aa1b60648201526084015b60405180910390fd5b506001600160a01b0381166000908152600b60205260409020805460ff191660019081179091555b919050565b6000610778826110de565b9050806001600160a01b0316836001600160a01b0316036107e55760405162461bcd60e51b815260206004820152602160248201527f4552433732313a20617070726f76616c20746f2063757272656e74206f776e656044820152603960f91b6064820152608401610737565b336001600160a01b03821614806108015750610801813361233f565b6108735760405162461bcd60e51b815260206004820152603d60248201527f4552433732313a20617070726f76652063616c6c6572206973206e6f7420746f60448201527f6b656e206f776e6572206f7220617070726f76656420666f7220616c6c0000006064820152608401610737565b61087d838361282f565b505050565b3361088c836110de565b6001600160a01b0316146108e25760405162461bcd60e51b815260206004820152601d60248201527f596f7520617265206e6f74206f776e6572206f662074686973206e66740000006044820152606401610737565b6000828152600e6020526040902060040154600160a01b900460ff16156109455760405162461bcd60e51b81526020600482015260176024820152764974656d20697320616c7265616479206f6e2073616c6560481b6044820152606401610737565b60085434146109665760405162461bcd60e51b815260040161073790614a62565b6000918252600e6020908152604080842060048082018054600160a01b60ff60a01b1991821681179092556002808501889055600890940180548952600c90965284882090920180549092161790559154845290922090910155600980546001019055565b5050565b6109d9338261289d565b6109f55760405162461bcd60e51b815260040161073790614aa6565b61087d8383836128fb565b6001600160a01b03166000908152600b602052604090205460ff1690565b6000610a29836117ae565b8210610a475760405162461bcd60e51b815260040161073790614af3565b506001600160a01b03919091166000908152600f60209081526040808320938352929052205490565b60606000610a7d60115490565b9050600080610a8b60095490565b6001600160401b03811115610aa257610aa2614680565b604051908082528060200260200182016040528015610adb57816020015b610ac8614188565b815260200190600190039081610ac05790505b50905060005b8381101561103d576000610af482611090565b6000818152600e60205260409020600481015491925090600160a01b900460ff1615156001036110285760408051610280810190915281548290829060ff166002811115610b4457610b4461445b565b6002811115610b5557610b5561445b565b815260018201546020820152600282015460408201526003820154606082015260048201546001600160a01b038082166080840152600160a01b90910460ff16151560a0830152600583015460c083015260068301541660e082015260078201805461010090920191610bc790614a28565b80601f0160208091040260200160405190810160405280929190818152602001828054610bf390614a28565b8015610c405780601f10610c1557610100808354040283529160200191610c40565b820191906000526020600020905b815481529060010190602001808311610c2357829003601f168201915b5050505050815260200160088201548152602001600982018054610c6390614a28565b80601f0160208091040260200160405190810160405280929190818152602001828054610c8f90614a28565b8015610cdc5780601f10610cb157610100808354040283529160200191610cdc565b820191906000526020600020905b815481529060010190602001808311610cbf57829003601f168201915b5050509183525050600a8201546020820152600b82015460ff1615156040820152600c82018054606090920191610d1290614a28565b80601f0160208091040260200160405190810160405280929190818152602001828054610d3e90614a28565b8015610d8b5780601f10610d6057610100808354040283529160200191610d8b565b820191906000526020600020905b815481529060010190602001808311610d6e57829003601f168201915b50505050508152602001600d8201548152602001600e82018054610dae90614a28565b80601f0160208091040260200160405190810160405280929190818152602001828054610dda90614a28565b8015610e275780601f10610dfc57610100808354040283529160200191610e27565b820191906000526020600020905b815481529060010190602001808311610e0a57829003601f168201915b5050509183525050600f8201546001600160a01b03166020820152601082018054604090920191610e5790614a28565b80601f0160208091040260200160405190810160405280929190818152602001828054610e8390614a28565b8015610ed05780601f10610ea557610100808354040283529160200191610ed0565b820191906000526020600020905b815481529060010190602001808311610eb357829003601f168201915b50505050508152602001601182018054610ee990614a28565b80601f0160208091040260200160405190810160405280929190818152602001828054610f1590614a28565b8015610f625780601f10610f3757610100808354040283529160200191610f62565b820191906000526020600020905b815481529060010190602001808311610f4557829003601f168201915b50505050508152602001601282018054610f7b90614a28565b80601f0160208091040260200160405190810160405280929190818152602001828054610fa790614a28565b8015610ff45780601f10610fc957610100808354040283529160200191610ff4565b820191906000526020600020905b815481529060010190602001808311610fd757829003601f168201915b50505050508152505084868151811061100f5761100f614b20565b6020908102919091010152611025600186614b4c565b94505b5050808061103590614b64565b915050610ae1565b509392505050565b61087d838383604051806020016040528060008152506120ad565b6000600d826040516110729190614b7d565b9081526040519081900360200190205460ff16151560011492915050565b600061109b60115490565b82106110b95760405162461bcd60e51b815260040161073790614af3565b601182815481106110cc576110cc614b20565b90600052602060002001549050919050565b6000806110ea83612a5a565b90506001600160a01b0381166105f15760405162461bcd60e51b815260040161073790614b99565b61111a614188565b6000828152600e602052604090819020815161028081019092528054829060ff16600281111561114c5761114c61445b565b600281111561115d5761115d61445b565b815260018201546020820152600282015460408201526003820154606082015260048201546001600160a01b038082166080840152600160a01b90910460ff16151560a0830152600583015460c083015260068301541660e0820152600782018054610100909201916111cf90614a28565b80601f01602080910402602001604051908101604052809291908181526020018280546111fb90614a28565b80156112485780601f1061121d57610100808354040283529160200191611248565b820191906000526020600020905b81548152906001019060200180831161122b57829003601f168201915b505050505081526020016008820154815260200160098201805461126b90614a28565b80601f016020809104026020016040519081016040528092919081815260200182805461129790614a28565b80156112e45780601f106112b9576101008083540402835291602001916112e4565b820191906000526020600020905b8154815290600101906020018083116112c757829003601f168201915b5050509183525050600a8201546020820152600b82015460ff1615156040820152600c8201805460609092019161131a90614a28565b80601f016020809104026020016040519081016040528092919081815260200182805461134690614a28565b80156113935780601f1061136857610100808354040283529160200191611393565b820191906000526020600020905b81548152906001019060200180831161137657829003601f168201915b50505050508152602001600d8201548152602001600e820180546113b690614a28565b80601f01602080910402602001604051908101604052809291908181526020018280546113e290614a28565b801561142f5780601f106114045761010080835404028352916020019161142f565b820191906000526020600020905b81548152906001019060200180831161141257829003601f168201915b5050509183525050600f8201546001600160a01b0316602082015260108201805460409092019161145f90614a28565b80601f016020809104026020016040519081016040528092919081815260200182805461148b90614a28565b80156114d85780601f106114ad576101008083540402835291602001916114d8565b820191906000526020600020905b8154815290600101906020018083116114bb57829003601f168201915b505050505081526020016011820180546114f190614a28565b80601f016020809104026020016040519081016040528092919081815260200182805461151d90614a28565b801561156a5780601f1061153f5761010080835404028352916020019161156a565b820191906000526020600020905b81548152906001019060200180831161154d57829003601f168201915b5050505050815260200160128201805461158390614a28565b80601f01602080910402602001604051908101604052809291908181526020018280546115af90614a28565b80156115fc5780601f106115d1576101008083540402835291602001916115fc565b820191906000526020600020905b8154815290600101906020018083116115df57829003601f168201915b5050505050815250509050919050565b600060026000848152600e602052604090205460ff1660028111156116335761163361445b565b1461167c5760405162461bcd60e51b81526020600482015260196024820152784e6674207374617465206973206e6f74206f66666572696e6760381b6044820152606401610737565b6000611687846110de565b90506001600160a01b03811633146116dc5760405162461bcd60e51b81526020600482015260186024820152774e6674206973206e6f742062656c6f6e6720746f20796f7560401b6044820152606401610737565b6000848152600e60209081526040909120845161170192601190920191860190614244565b506000848152600e60209081526040808320600801548352600c8252909120845161173492601190920191860190614244565b506000848152600e60205260409020600f01546001600160a01b031661175b828287612a75565b6117668282876128fb565b6117708583612b2d565b505050600091825250600e602090815260408083208054600160ff19918216811783556008909201548552600c909352922080549091168217905590565b60006001600160a01b0382166118185760405162461bcd60e51b815260206004820152602960248201527f4552433732313a2061646472657373207a65726f206973206e6f7420612076616044820152683634b21037bbb732b960b91b6064820152608401610737565b506001600160a01b031660009081526003602052604090205490565b60606000611841336117ae565b90506000816001600160401b0381111561185d5761185d614680565b60405190808252806020026020018201604052801561189657816020015b611883614188565b81526020019060019003908161187b5790505b50905060005b82811015611dd35760006118b03383610a1e565b6000818152600e602052604090819020815161028081019092528054929350918290829060ff1660028111156118e8576118e861445b565b60028111156118f9576118f961445b565b815260018201546020820152600282015460408201526003820154606082015260048201546001600160a01b038082166080840152600160a01b90910460ff16151560a0830152600583015460c083015260068301541660e08201526007820180546101009092019161196b90614a28565b80601f016020809104026020016040519081016040528092919081815260200182805461199790614a28565b80156119e45780601f106119b9576101008083540402835291602001916119e4565b820191906000526020600020905b8154815290600101906020018083116119c757829003601f168201915b5050505050815260200160088201548152602001600982018054611a0790614a28565b80601f0160208091040260200160405190810160405280929190818152602001828054611a3390614a28565b8015611a805780601f10611a5557610100808354040283529160200191611a80565b820191906000526020600020905b815481529060010190602001808311611a6357829003601f168201915b5050509183525050600a8201546020820152600b82015460ff1615156040820152600c82018054606090920191611ab690614a28565b80601f0160208091040260200160405190810160405280929190818152602001828054611ae290614a28565b8015611b2f5780601f10611b0457610100808354040283529160200191611b2f565b820191906000526020600020905b815481529060010190602001808311611b1257829003601f168201915b50505050508152602001600d8201548152602001600e82018054611b5290614a28565b80601f0160208091040260200160405190810160405280929190818152602001828054611b7e90614a28565b8015611bcb5780601f10611ba057610100808354040283529160200191611bcb565b820191906000526020600020905b815481529060010190602001808311611bae57829003601f168201915b5050509183525050600f8201546001600160a01b03166020820152601082018054604090920191611bfb90614a28565b80601f0160208091040260200160405190810160405280929190818152602001828054611c2790614a28565b8015611c745780601f10611c4957610100808354040283529160200191611c74565b820191906000526020600020905b815481529060010190602001808311611c5757829003601f168201915b50505050508152602001601182018054611c8d90614a28565b80601f0160208091040260200160405190810160405280929190818152602001828054611cb990614a28565b8015611d065780601f10611cdb57610100808354040283529160200191611d06565b820191906000526020600020905b815481529060010190602001808311611ce957829003601f168201915b50505050508152602001601282018054611d1f90614a28565b80601f0160208091040260200160405190810160405280929190818152602001828054611d4b90614a28565b8015611d985780601f10611d6d57610100808354040283529160200191611d98565b820191906000526020600020905b815481529060010190602001808311611d7b57829003601f168201915b505050505081525050848481518110611db357611db3614b20565b602002602001018190525050508080611dcb90614b64565b91505061189c565b5092915050565b611de26127d0565b611dec600061311c565b565b611df66127d0565b60008111611e165760405162461bcd60e51b815260040161073790614bcb565b600855565b6007546001600160a01b031690565b60606001805461060690614a28565b6109cb33838361316e565b6000611e4f846110de565b6001600160a01b03163303611ea15760405162461bcd60e51b8152602060048201526018602482015277165bdd48185b1c9958591e481bdddb881d1a1a5cc813919560421b6044820152606401610737565b6000848152600e60205260409020600201543414611f015760405162461bcd60e51b815260206004820152601e60248201527f506c65617365207375626d6974207468652061736b696e6720707269636500006044820152606401610737565b60016000858152600e602052604090205460ff166002811115611f2657611f2661445b565b14611f6d5760405162461bcd60e51b815260206004820152601760248201527613999d081cdd185d19481a5cc81b9bdd08135a5b9d1959604a1b6044820152606401610737565b6000848152600e602081815260408084206004808201805460ff60a01b199081169091556008830180548852600c8652848820909201805490911690558154600260ff1991821681178455825488528488208054909216179055600f8083018054336001600160a01b031991821681179092559254885293872001805490911690921790915592879052908152845161200c9260100191860190614244565b506000848152600e60209081526040808320600801548352600c8252909120845161203f92601090920191860190614244565b506000848152600e60209081526040909120835161206592601290920191850190614244565b506000848152600e60209081526040808320600801548352600c8252909120835161209892601290920191850190614244565b506120a36009613238565b5060019392505050565b6120b7338361289d565b6120d35760405162461bcd60e51b815260040161073790614aa6565b6120df8484848461328d565b50505050565b60606120f0826127ab565b6000828152600660205260408120805461210990614a28565b80601f016020809104026020016040519081016040528092919081815260200182805461213590614a28565b80156121825780601f1061215757610100808354040283529160200191612182565b820191906000526020600020905b81548152906001019060200180831161216557829003601f168201915b5050505050905060006121a060408051602081019091526000815290565b905080516000036121b2575092915050565b8151156121e45780826040516020016121cc929190614c01565b60405160208183030381529060405292505050919050565b6121ed846132c0565b949350505050565b600061220060095490565b905090565b600061221087611060565b156122585760405162461bcd60e51b8152602060048201526018602482015277546f6b656e2055524920616c72656164792065786973747360401b6044820152606401610737565b60085434146122795760405162461bcd60e51b815260040161073790614a62565b336122848886613334565b6001600160a01b0316146122aa5760405162461bcd60e51b815260040161073790614c30565b6122b8600a80546001019055565b6122c6600980546001019055565b60006122d1600a5490565b90506122df60003383612a75565b6122e93382613380565b6122f3818961339a565b612301818888888888613425565b6001600d896040516123139190614b7d565b908152604051908190036020019020805491151560ff1990921691909117905590509695505050505050565b6001600160a01b03918216600090815260056020908152604080832093909416825291909152205460ff1690565b612375614188565b6000828152600c602052604090819020815161028081019092528054829060ff16600281111561114c5761114c61445b565b6123af6127d0565b6001600160a01b0381166124145760405162461bcd60e51b815260206004820152602660248201527f4f776e61626c653a206e6577206f776e657220697320746865207a65726f206160448201526564647265737360d01b6064820152608401610737565b61241d8161311c565b50565b600061242b33610a00565b15156001146124775760405162461bcd60e51b815260206004820152601860248201527734b73b30b634b2103a32b9ba1037b933b734bd30ba34b7b760411b6044820152606401610737565b866001600160a01b031661248b86866138e4565b6001600160a01b0316146124b15760405162461bcd60e51b815260040161073790614c30565b60648311156125025760405162461bcd60e51b815260206004820152601f60248201527f666972737450726f706f7274696f6e206973206f7574206f662072616e6765006044820152606401610737565b604080516102808101825260008082526020808301829052828401829052606083018290526080830182905260a0830182905260c083018290523360e084015261010083018a9052610120830189905261014083018890526101608301879052851515610180840152835180820185528281526101a08401526101c08301829052835180820185528281526101e08401526102008301829052835180820185528281526102208401528351808201855282815261024084015283518082018552828152610260840152888252600c90529190912081518154829060ff191660018360028111156125f4576125f461445b565b021790555060208281015160018301556040830151600283015560608301516003830155608083015160048301805460a08601511515600160a01b026001600160a81b03199091166001600160a01b039384161717905560c0840151600584015560e0840151600684018054919092166001600160a01b031991909116179055610100830151805161268c9260078501920190614244565b50610120820151600882015561014082015180516126b4916009840191602090910190614244565b50610160820151600a820155610180820151600b8201805460ff19169115159190911790556101a082015180516126f591600c840191602090910190614244565b506101c0820151600d8201556101e0820151805161271d91600e840191602090910190614244565b50610200820151600f820180546001600160a01b0319166001600160a01b039092169190911790556102208201518051612761916010840191602090910190614244565b50610240820151805161277e916011840191602090910190614244565b50610260820151805161279b916012840191602090910190614244565b5060019998505050505050505050565b6127b4816138fc565b61241d5760405162461bcd60e51b815260040161073790614b99565b336127d9611e1b565b6001600160a01b031614611dec5760405162461bcd60e51b815260206004820181905260248201527f4f776e61626c653a2063616c6c6572206973206e6f7420746865206f776e65726044820152606401610737565b600081815260046020526040902080546001600160a01b0319166001600160a01b0384169081179091558190612864826110de565b6001600160a01b03167f8c5be1e5ebec7d5bd14f71427d1e84f3dd0314c0f7b2291e5b200ac8c7c3b92560405160405180910390a45050565b6000806128a9836110de565b9050806001600160a01b0316846001600160a01b031614806128d057506128d0818561233f565b806121ed5750836001600160a01b03166128e984610689565b6001600160a01b031614949350505050565b826001600160a01b031661290e826110de565b6001600160a01b0316146129345760405162461bcd60e51b815260040161073790614c5a565b6001600160a01b0382166129965760405162461bcd60e51b8152602060048201526024808201527f4552433732313a207472616e7366657220746f20746865207a65726f206164646044820152637265737360e01b6064820152608401610737565b6129a38383836001613919565b826001600160a01b03166129b6826110de565b6001600160a01b0316146129dc5760405162461bcd60e51b815260040161073790614c5a565b600081815260046020908152604080832080546001600160a01b03199081169091556001600160a01b038781168086526003855283862080546000190190559087168086528386208054600101905586865260029094528285208054909216841790915590518493600080516020614de683398151915291a4505050565b6000908152600260205260409020546001600160a01b031690565b6001600160a01b038316612ad057612acb81601180546000838152601260205260408120829055600182018355919091527f31ecc21a745e3968a04e9570e4425bc18fa8019c68028196b546d1669c200c680155565b612af3565b816001600160a01b0316836001600160a01b031614612af357612af383826139a1565b6001600160a01b038216612b0a5761087d81613a3e565b826001600160a01b0316826001600160a01b03161461087d5761087d8282613aed565b6000828152600e60205260408120600481015460028201546003830154600584015460068501546008860154600a870154600b880154600d909801546001600160a01b039788169996989597949693909416949193909260ff90921691869003612cb65782600003612bd5576040516001600160a01b038a169089156108fc02908a906000818181858888f19350505050158015612bcf573d6000803e3d6000fd5b50612cb6565b82606403612c13576040516001600160a01b0386169089156108fc02908a906000818181858888f19350505050158015612bcf573d6000803e3d6000fd5b6001600160a01b0385166108fc6064612c2c868c614c9f565b612c369190614cbe565b6040518115909202916000818181858888f19350505050158015612c5e573d6000803e3d6000fd5b506001600160a01b0389166108fc6064612c788682614ce0565b612c82908c614c9f565b612c8c9190614cbe565b6040518115909202916000818181858888f19350505050158015612cb4573d6000803e3d6000fd5b505b8688118015612cc457508515155b1561308657811515600003612e4c5780600003612d17576040516001600160a01b038b169089156108fc02908a906000818181858888f19350505050158015612d11573d6000803e3d6000fd5b5061305d565b80606403612d95576001600160a01b0389166108fc612d36898b614ce0565b6040518115909202916000818181858888f19350505050158015612d5e573d6000803e3d6000fd5b506040516001600160a01b038b169088156108fc029089906000818181858888f19350505050158015612d11573d6000803e3d6000fd5b6001600160a01b0389166108fc606483612daf8b8d614ce0565b612db99190614c9f565b612dc39190614cbe565b6040518115909202916000818181858888f19350505050158015612deb573d6000803e3d6000fd5b506001600160a01b038a166108fc606483612e068b8d614ce0565b612e109190614c9f565b612e1a9190614cbe565b612e24908b614ce0565b6040518115909202916000818181858888f19350505050158015612d11573d6000803e3d6000fd5b80606403612e6b576001600160a01b0389166108fc612d36898b614ce0565b80600003612ee4576001600160a01b0385166108fc606485612e8d8b8d614ce0565b612e979190614c9f565b612ea19190614cbe565b6040518115909202916000818181858888f19350505050158015612ec9573d6000803e3d6000fd5b506001600160a01b038a166108fc606485612e068b8d614ce0565b6001600160a01b0389166108fc606483612efe8b8d614ce0565b612f089190614c9f565b612f129190614cbe565b6040518115909202916000818181858888f19350505050158015612f3a573d6000803e3d6000fd5b506001600160a01b0385166108fc60648581612f568682614ce0565b612f608d8f614ce0565b612f6a9190614c9f565b612f749190614cbe565b612f7e9190614c9f565b612f889190614cbe565b6040518115909202916000818181858888f19350505050158015612fb0573d6000803e3d6000fd5b506001600160a01b038a166108fc60648581612fcc8682614ce0565b612fd68d8f614ce0565b612fe09190614c9f565b612fea9190614cbe565b612ff49190614c9f565b612ffe9190614cbe565b60648461300b8c8e614ce0565b6130159190614c9f565b61301f9190614cbe565b613029908c614ce0565b6130339190614ce0565b6040518115909202916000818181858888f1935050505015801561305b573d6000803e3d6000fd5b505b60008b8152600e6020908152604080832060039081018c9055878452600c909252909120018890555b86881115801561309557508515155b156130d2576040516001600160a01b038b169089156108fc02908a906000818181858888f193505050501580156130d0573d6000803e3d6000fd5b505b6130dd866001614b4c565b60008c8152600e60205260409020600501556130fa866001614b4c565b6000948552600c60205260409094206005019390935550505050505050505050565b600780546001600160a01b038381166001600160a01b0319831681179093556040519116919082907f8be0079c531659141344cd1fd0a4f28419497f9722a3daafe3b4186f6b6457e090600090a35050565b816001600160a01b0316836001600160a01b0316036131cb5760405162461bcd60e51b815260206004820152601960248201527822a9219b99189d1030b8383937bb32903a379031b0b63632b960391b6044820152606401610737565b6001600160a01b03838116600081815260056020908152604080832094871680845294825291829020805460ff191686151590811790915591519182527f17307eab39ab6107e8899845ad3d59bd9653f200f220920489ca2b5937696c31910160405180910390a3505050565b8054806132855760405162461bcd60e51b815260206004820152601b60248201527a436f756e7465723a2064656372656d656e74206f766572666c6f7760281b6044820152606401610737565b600019019055565b6132988484846128fb565b6132a484848484613b31565b6120df5760405162461bcd60e51b815260040161073790614cf7565b60606132cb826127ab565b60006132e260408051602081019091526000815290565b90506000815111613302576040518060200160405280600081525061332d565b8061330c84613c32565b60405160200161331d929190614c01565b6040516020818303038152906040525b9392505050565b600080836040516020016133489190614b7d565b604051602081830303815290604052805190602001209050600061336b82613cc4565b90506133778185613d16565b95945050505050565b6109cb828260405180602001604052806000815250613d32565b6133a3826138fc565b6134065760405162461bcd60e51b815260206004820152602e60248201527f45524337323155524953746f726167653a2055524920736574206f66206e6f6e60448201526d32bc34b9ba32b73a103a37b5b2b760911b6064820152608401610737565b6000828152600660209081526040909120825161087d92840190614244565b600085116134455760405162461bcd60e51b815260040161073790614bcb565b60648211156134935760405162461bcd60e51b815260206004820152601a60248201527970726f706f7274696f6e206973206f7574206f662072616e676560301b6044820152606401610737565b600061349e8561236d565b9050600181819052506020808201889052604080830188905260608301889052336080840152600160a084018190526101a084018790526101c084018690526101e0840185905260008a8152600e9093529120825181548493839160ff1916908360028111156135105761351061445b565b021790555060208281015160018301556040830151600283015560608301516003830155608083015160048301805460a08601511515600160a01b026001600160a81b03199091166001600160a01b039384161717905560c0840151600584015560e0840151600684018054919092166001600160a01b03199190911617905561010083015180516135a89260078501920190614244565b50610120820151600882015561014082015180516135d0916009840191602090910190614244565b50610160820151600a820155610180820151600b8201805460ff19169115159190911790556101a0820151805161361191600c840191602090910190614244565b506101c0820151600d8201556101e0820151805161363991600e840191602090910190614244565b50610200820151600f820180546001600160a01b0319166001600160a01b03909216919091179055610220820151805161367d916010840191602090910190614244565b50610240820151805161369a916011840191602090910190614244565b5061026082015180516136b7916012840191602090910190614244565b5050506000858152600c602052604090208151815483929190829060ff191660018360028111156136ea576136ea61445b565b021790555060208281015160018301556040830151600283015560608301516003830155608083015160048301805460a08601511515600160a01b026001600160a81b03199091166001600160a01b039384161717905560c0840151600584015560e0840151600684018054919092166001600160a01b03199190911617905561010083015180516137829260078501920190614244565b50610120820151600882015561014082015180516137aa916009840191602090910190614244565b50610160820151600a820155610180820151600b8201805460ff19169115159190911790556101a082015180516137eb91600c840191602090910190614244565b506101c0820151600d8201556101e0820151805161381391600e840191602090910190614244565b50610200820151600f820180546001600160a01b0319166001600160a01b039092169190911790556102208201518051613857916010840191602090910190614244565b506102408201518051613874916011840191602090910190614244565b506102608201518051613891916012840191602090910190614244565b5050604080518981526020810189905233818301526001606082015290517f470031062672bc0246e132c723a729c4676710ec663a29e86c88678032daddea92509081900360800190a150505050505050565b6000806138f084613cc4565b90506121ed8184613d16565b60008061390883612a5a565b6001600160a01b0316141592915050565b60018111156120df576001600160a01b0384161561395f576001600160a01b03841660009081526003602052604081208054839290613959908490614ce0565b90915550505b6001600160a01b038316156120df576001600160a01b03831660009081526003602052604081208054839290613996908490614b4c565b909155505050505050565b600060016139ae846117ae565b6139b89190614ce0565b600083815260106020526040902054909150808214613a0b576001600160a01b0384166000908152600f602090815260408083208584528252808320548484528184208190558352601090915290208190555b5060009182526010602090815260408084208490556001600160a01b039094168352600f81528383209183525290812055565b601154600090613a5090600190614ce0565b60008381526012602052604081205460118054939450909284908110613a7857613a78614b20565b906000526020600020015490508060118381548110613a9957613a99614b20565b6000918252602080832090910192909255828152601290915260408082208490558582528120556011805480613ad157613ad1614d49565b6001900381819060005260206000200160009055905550505050565b6000613af8836117ae565b6001600160a01b039093166000908152600f60209081526040808320868452825280832085905593825260109052919091209190915550565b60006001600160a01b0384163b15613c2757604051630a85bd0160e11b81526001600160a01b0385169063150b7a0290613b75903390899088908890600401614d5f565b6020604051808303816000875af1925050508015613bb0575060408051601f3d908101601f19168201909252613bad91810190614d92565b60015b613c0d573d808015613bde576040519150601f19603f3d011682016040523d82523d6000602084013e613be3565b606091505b508051600003613c055760405162461bcd60e51b815260040161073790614cf7565b805181602001fd5b6001600160e01b031916630a85bd0160e11b1490506121ed565b506001949350505050565b60606000613c3f83613d65565b60010190506000816001600160401b03811115613c5e57613c5e614680565b6040519080825280601f01601f191660200182016040528015613c88576020820181803683370190505b5090508181016020015b600019016f181899199a1a9b1b9c1cb0b131b232b360811b600a86061a8153600a8504945084613c9257509392505050565b6040517b0ca2ba3432b932bab69029b4b3b732b21026b2b9b9b0b3b29d05199960211b6020820152603c8101829052600090605c01604051602081830303815290604052805190602001209050919050565b6000806000613d258585613e3b565b9150915061103d81613e80565b613d3c8383613fc5565b613d496000848484613b31565b61087d5760405162461bcd60e51b815260040161073790614cf7565b60008072184f03e93ff9f4daa797ed6e38ed64bf6a1f0160401b8310613da45772184f03e93ff9f4daa797ed6e38ed64bf6a1f0160401b830492506040015b6904ee2d6d415b85acef8160201b8310613dce576904ee2d6d415b85acef8160201b830492506020015b662386f26fc100008310613dec57662386f26fc10000830492506010015b6305f5e1008310613e04576305f5e100830492506008015b6127108310613e1857612710830492506004015b60648310613e2a576064830492506002015b600a83106105f15760010192915050565b6000808251604103613e715760208301516040840151606085015160001a613e65878285856140ce565b94509450505050613e79565b506000905060025b9250929050565b6000816004811115613e9457613e9461445b565b03613e9c5750565b6001816004811115613eb057613eb061445b565b03613ef85760405162461bcd60e51b815260206004820152601860248201527745434453413a20696e76616c6964207369676e617475726560401b6044820152606401610737565b6002816004811115613f0c57613f0c61445b565b03613f595760405162461bcd60e51b815260206004820152601f60248201527f45434453413a20696e76616c6964207369676e6174757265206c656e677468006044820152606401610737565b6003816004811115613f6d57613f6d61445b565b0361241d5760405162461bcd60e51b815260206004820152602260248201527f45434453413a20696e76616c6964207369676e6174757265202773272076616c604482015261756560f01b6064820152608401610737565b6001600160a01b03821661401b5760405162461bcd60e51b815260206004820181905260248201527f4552433732313a206d696e7420746f20746865207a65726f20616464726573736044820152606401610737565b614024816138fc565b156140415760405162461bcd60e51b815260040161073790614daf565b61404f600083836001613919565b614058816138fc565b156140755760405162461bcd60e51b815260040161073790614daf565b6001600160a01b038216600081815260036020908152604080832080546001019055848352600290915280822080546001600160a01b031916841790555183929190600080516020614de6833981519152908290a45050565b6000806fa2a8918ca85bafe22016d0b997e4df60600160ff1b038311156140fb575060009050600361417f565b6040805160008082526020820180845289905260ff881692820192909252606081018690526080810185905260019060a0016020604051602081039080840390855afa15801561414f573d6000803e3d6000fd5b5050604051601f1901519150506001600160a01b0381166141785760006001925092505061417f565b9150600090505b94509492505050565b604080516102808101909152806000815260200160008152602001600081526020016000815260200160006001600160a01b031681526020016000151581526020016000815260200160006001600160a01b031681526020016060815260200160008019168152602001606081526020016000815260200160001515815260200160608152602001600081526020016060815260200160006001600160a01b031681526020016060815260200160608152602001606081525090565b82805461425090614a28565b90600052602060002090601f01602090048101928261427257600085556142b8565b82601f1061428b57805160ff19168380011785556142b8565b828001600101855582156142b8579182015b828111156142b857825182559160200191906001019061429d565b506142c49291506142c8565b5090565b5b808211156142c457600081556001016142c9565b6001600160e01b03198116811461241d57600080fd5b60006020828403121561430557600080fd5b813561332d816142dd565b60005b8381101561432b578181015183820152602001614313565b838111156120df5750506000910152565b60008151808452614354816020860160208601614310565b601f01601f19169290920160200192915050565b60208152600061332d602083018461433c565b60006020828403121561438d57600080fd5b5035919050565b6001600160a01b03169052565b80356001600160a01b038116811461076857600080fd5b6000602082840312156143ca57600080fd5b61332d826143a1565b600080604083850312156143e657600080fd5b6143ef836143a1565b946020939093013593505050565b6000806040838503121561441057600080fd5b50508035926020909101359150565b60008060006060848603121561443457600080fd5b61443d846143a1565b925061444b602085016143a1565b9150604084013590509250925092565b634e487b7160e01b600052602160045260246000fd5b6003811061448f57634e487b7160e01b600052602160045260246000fd5b9052565b60006102806144a3848451614471565b60208301516020850152604083015160408501526060830151606085015260808301516144d36080860182614394565b5060a08301516144e760a086018215159052565b5060c083015160c085015260e083015161450460e0860182614394565b5061010080840151828287015261451d8387018261433c565b925050506101208084015181860152506101408084015185830382870152614545838261433c565b92505050610160808401518186015250610180808401516145698287018215159052565b50506101a08084015185830382870152614583838261433c565b925050506101c08084015181860152506101e080840151858303828701526145ab838261433c565b92505050610200808401516145c282870182614394565b505061022080840151858303828701526145dc838261433c565b9250505061024080840151858303828701526145f8838261433c565b925050506102608084015185830382870152614614838261433c565b9695505050505050565b6000602080830181845280855180835260408601915060408160051b870101925083870160005b8281101561467357603f19888603018452614661858351614493565b94509285019290850190600101614645565b5092979650505050505050565b634e487b7160e01b600052604160045260246000fd5b600082601f8301126146a757600080fd5b81356001600160401b03808211156146c1576146c1614680565b604051601f8301601f19908116603f011681019082821181831017156146e9576146e9614680565b8160405283815286602085880101111561470257600080fd5b836020870160208301376000602085830101528094505050505092915050565b60006020828403121561473457600080fd5b81356001600160401b0381111561474a57600080fd5b6121ed84828501614696565b60208152600061332d6020830184614493565b6000806040838503121561477c57600080fd5b8235915060208301356001600160401b0381111561479957600080fd5b6147a585828601614696565b9150509250929050565b8035801515811461076857600080fd5b600080604083850312156147d257600080fd5b6147db836143a1565b91506147e9602084016147af565b90509250929050565b60008060006060848603121561480757600080fd5b8335925060208401356001600160401b038082111561482557600080fd5b61483187838801614696565b9350604086013591508082111561484757600080fd5b5061485486828701614696565b9150509250925092565b6000806000806080858703121561487457600080fd5b61487d856143a1565b935061488b602086016143a1565b92506040850135915060608501356001600160401b038111156148ad57600080fd5b6148b987828801614696565b91505092959194509250565b60008060008060008060c087890312156148de57600080fd5b86356001600160401b03808211156148f557600080fd5b6149018a838b01614696565b97506020890135965060408901359550606089013591508082111561492557600080fd5b6149318a838b01614696565b94506080890135935060a089013591508082111561494e57600080fd5b5061495b89828a01614696565b9150509295509295509295565b6000806040838503121561497b57600080fd5b614984836143a1565b91506147e9602084016143a1565b60008060008060008060c087890312156149ab57600080fd5b6149b4876143a1565b955060208701356001600160401b03808211156149d057600080fd5b6149dc8a838b01614696565b96506040890135955060608901359150808211156149f957600080fd5b50614a0689828a01614696565b93505060808701359150614a1c60a088016147af565b90509295509295509295565b600181811c90821680614a3c57607f821691505b602082108103614a5c57634e487b7160e01b600052602260045260246000fd5b50919050565b60208082526024908201527f5072696365206d75737420626520657175616c20746f206c697374696e6720706040820152637269636560e01b606082015260800190565b6020808252602d908201527f4552433732313a2063616c6c6572206973206e6f7420746f6b656e206f776e6560408201526c1c881bdc88185c1c1c9bdd9959609a1b606082015260800190565b602080825260139082015272496e646578206f7574206f6620626f756e647360681b604082015260600190565b634e487b7160e01b600052603260045260246000fd5b634e487b7160e01b600052601160045260246000fd5b60008219821115614b5f57614b5f614b36565b500190565b600060018201614b7657614b76614b36565b5060010190565b60008251614b8f818460208701614310565b9190910192915050565b602080825260189082015277115490cdcc8c4e881a5b9d985b1a59081d1bdad95b88125160421b604082015260600190565b6020808252601c908201527b5072696365206d757374206265206174206c6561737420312077656960201b604082015260600190565b60008351614c13818460208801614310565b835190830190614c27818360208801614310565b01949350505050565b60208082526010908201526f696e76616c64207369676e617475726560801b604082015260600190565b60208082526025908201527f4552433732313a207472616e736665722066726f6d20696e636f72726563742060408201526437bbb732b960d91b606082015260800190565b6000816000190483118215151615614cb957614cb9614b36565b500290565b600082614cdb57634e487b7160e01b600052601260045260246000fd5b500490565b600082821015614cf257614cf2614b36565b500390565b60208082526032908201527f4552433732313a207472616e7366657220746f206e6f6e20455243373231526560408201527131b2b4bb32b91034b6b83632b6b2b73a32b960711b606082015260800190565b634e487b7160e01b600052603160045260246000fd5b6001600160a01b03858116825284166020820152604081018390526080606082018190526000906146149083018461433c565b600060208284031215614da457600080fd5b815161332d816142dd565b6020808252601c908201527b115490cdcc8c4e881d1bdad95b88185b1c9958591e481b5a5b9d195960221b60408201526060019056feddf252ad1be2c89b69c2b068fc378daa952ba7f163c4a11628f55a4df523b3efa26469706673582212203cd4258a9a40227338ba419c413088fecc124d15d405c2acf57d01ef14d37d3d64736f6c634300080d0033",
  "immutableReferences": {},
  "source": "// SPDX-License-Identifier: MIT\npragma solidity >=0.4.22 <0.9.0;\n\nimport \"@openzeppelin/contracts/token/ERC721/extensions/ERC721URIStorage.sol\";\nimport \"@openzeppelin/contracts/utils/Counters.sol\";\nimport \"@openzeppelin/contracts/access/Ownable.sol\";\nimport \"@openzeppelin/contracts/utils/cryptography/ECDSA.sol\";\n\ncontract NftMarket is ERC721URIStorage, Ownable {\n  using Counters for Counters.Counter;\n\n  enum NftState {Signed, Minted, Offering}\n  // enum NftState {Signed, Minted, Offering, Encrypted, Failed, Encrypting}\n\n  struct NftItem {\n      NftState state;          //NFT\n  \n      uint tokenId;            //tokenID\n      uint price;              //token\n      uint maxPrice;           //token\n      address creator;         //token\n      bool isListed;           //\n      uint txCount;            //\n  \n      address testOrg;         //\n      string data;             //\n      bytes32 dataHash;        //hash\n      bytes orgSign;           //hash\n      uint firstProportion;    //,\n      bool sustainProportion;  //\n  \n      bytes sign;              //metadata\n      uint proportion;         //\n      string encryptedKey;     //\n  \n      address consumer;        //\n      bytes consumerSign;      //hash\n      string consumerKey;      //\n      string consumerPubKey;   //\n    }\n\n\n  uint public listingPrice = 0.025 ether;\n  // uint public providerProportion = 80;\n  \n\n  Counters.Counter private _listedItems;\n  Counters.Counter private _tokenIds;\n\n  mapping(address => bool) private testOrgList;\n  mapping(bytes32 => NftItem) private _HashToNftItem;\n  \n  mapping(string => bool) private _usedTokenURIs;\n  mapping(uint => NftItem) private _idToNftItem;\n\n  mapping(address => mapping(uint => uint)) private _ownedTokens;\n  mapping(uint => uint) private _idToOwnedIndex;\n\n  uint256[] private _allNfts;\n  mapping(uint => uint) private _idToNftIndex;\n\n  event NftItemCreated (\n    uint tokenId,\n    uint price,\n    address creator,\n    bool isListed\n  );\n\n  constructor() ERC721(\"GenomesNFT\", \"GNFT\") {}\n\n  // \n  function setTestOrg(address orgAdd) public onlyOwner returns(bool){\n    require(testOrgList[orgAdd] != true, \"orgAdd already included in the testOrg list\");\n    testOrgList[orgAdd] = true;\n    return true;\n  }\n\n  // \n  function containTestOrg(address orgAdd) public view returns(bool){\n    return testOrgList[orgAdd];\n  }\n\n  // \n  // address testOrg;        \n  // string data;            \n  // string dataHash;        hash\n  // string orgSign;         hash\n  // uint firstProportion;   \n  // bool sustainProportion; \n  function setNftOrgInfo(\n    address testOrg,\n    string memory data,\n    bytes32 dataHash,\n    bytes memory orgSign,\n    uint firstProportion,\n    bool sustainProportion\n    ) public returns(bool){\n    require(containTestOrg(msg.sender) == true, \"invalid test orgnization\");\n    require(_recoverSigner(dataHash, orgSign) == testOrg, \"invald signature\");\n    require( firstProportion >= 0 && firstProportion <= 100 , \"firstProportion is out of range\");\n\n    _HashToNftItem[dataHash] = NftItem(\n      NftState.Signed,\n      0,\n      0,\n      0,\n      address(0),\n      false,\n      0,\n      msg.sender,\n      data,\n      dataHash,\n      orgSign,\n      firstProportion,\n      sustainProportion,\n      \"\",\n      0,\n      \"\",\n      address(0),\n      \"\",\n      \"\",\n      \"\"\n    );\n    return true;  \n  }\n\n  function setListingPrice(uint newPrice) external onlyOwner {\n    require(newPrice > 0, \"Price must be at least 1 wei\");\n    listingPrice = newPrice;\n  }\n\n  // function setProviderProportion(uint newPro) external onlyOwner {\n  //   require(newPro >=30 && newPro <=80, \"New Proportion must be between 30 and 80\");\n  //   providerProportion = newPro;\n  // }\n\n  function getNftItem(uint tokenId) public view returns (NftItem memory) {\n    return _idToNftItem[tokenId];\n  }\n\n  function listedItemsCount() public view returns (uint) {\n    return _listedItems.current();\n  }\n\n  function tokenURIExists(string memory tokenURI) public view returns (bool) {\n    return _usedTokenURIs[tokenURI] == true;\n  }\n\n  function totalSupply() public view returns (uint) {\n    return _allNfts.length;\n  }\n\n  function tokenByIndex(uint index) public view returns (uint) {\n    require(index < totalSupply(), \"Index out of bounds\");\n    return _allNfts[index];\n  }\n\n  function tokenOfOwnerByIndex(address owner, uint index) public view returns (uint) {\n    require(index < ERC721.balanceOf(owner), \"Index out of bounds\");\n    return _ownedTokens[owner][index];\n  }\n\n  function getAllNftsOnSale() public view returns (NftItem[] memory) {\n    uint allItemsCounts = totalSupply();\n    uint currentIndex = 0;\n    NftItem[] memory items = new NftItem[](_listedItems.current());\n\n    for (uint i = 0; i < allItemsCounts; i++) {\n      uint tokenId = tokenByIndex(i);\n      NftItem storage item = _idToNftItem[tokenId];\n\n      if (item.isListed == true) {\n        items[currentIndex] = item;\n        currentIndex += 1;\n      }\n    }\n\n    return items;\n  }\n\n  function getOwnedNfts() public view returns (NftItem[] memory) {\n    uint ownedItemsCount = ERC721.balanceOf(msg.sender);\n    NftItem[] memory items = new NftItem[](ownedItemsCount);\n\n    for (uint i = 0; i < ownedItemsCount; i++) {\n      uint tokenId = tokenOfOwnerByIndex(msg.sender, i);\n      NftItem storage item = _idToNftItem[tokenId];\n      items[i] = item;\n    }\n\n    return items;\n  }\n\n  // tokenURI metadata\n  // price token\n  // dataHash hash\n  // sign metadata\n  // proportion \n  // encrypedKey \n  function mintToken(\n    string memory tokenURI,\n    uint price,\n    bytes32 dataHash,\n    bytes memory sign,   \n    uint proportion,\n    string memory encryptedKey\n    ) public payable returns (uint) {\n    require(!tokenURIExists(tokenURI), \"Token URI already exists\");\n    require(msg.value == listingPrice, \"Price must be equal to listing price\");\n    require(_recoverSignerByMessage(tokenURI, sign) == msg.sender, \"invald signature\");\n\n    // if(_HashToNftItem[dataHash].sustainProportion == true){\n    //   require(proportion <= (100 - _HashToNftItem[dataHash].firstProportion), \"proportion should be less than the limit of provider proportion\");\n    // } \n\n    _tokenIds.increment();\n    _listedItems.increment();\n\n    uint newTokenId = _tokenIds.current();\n\n    _beforeTokenTransfer(address(0), msg.sender, newTokenId);\n    _safeMint(msg.sender, newTokenId);\n    _setTokenURI(newTokenId, tokenURI);\n    _createNftItem(newTokenId, price, dataHash, sign, proportion, encryptedKey);\n    _usedTokenURIs[tokenURI] = true;\n\n    return newTokenId;\n  }\n\n  //  nft\n  function buyNft( uint tokenId, bytes memory consumerSign, string memory consumerPubKey) public payable returns(bool){\n    require(msg.sender != ERC721.ownerOf(tokenId), \"You already own this NFT\");\n    require(msg.value == _idToNftItem[tokenId].price, \"Please submit the asking price\");\n    require(_idToNftItem[tokenId].state == NftState.Minted, \"Nft state is not Minted\");\n\n    _idToNftItem[tokenId].isListed = false;\n    _HashToNftItem[_idToNftItem[tokenId].dataHash].isListed = false;\n    \n    _idToNftItem[tokenId].state = NftState.Offering;\n    _HashToNftItem[_idToNftItem[tokenId].dataHash].state = NftState.Offering;\n    \n    _idToNftItem[tokenId].consumer = msg.sender;\n    _HashToNftItem[_idToNftItem[tokenId].dataHash].consumer = msg.sender;\n    _idToNftItem[tokenId].consumerSign = consumerSign;\n    _HashToNftItem[_idToNftItem[tokenId].dataHash].consumerSign = consumerSign;\n    _idToNftItem[tokenId].consumerPubKey = consumerPubKey;\n    _HashToNftItem[_idToNftItem[tokenId].dataHash].consumerPubKey = consumerPubKey;\n    _listedItems.decrement();\n\n    return true;\n  }\n\n  // consumer\n  function confirmTx(uint tokenId, string memory consumerKey)public returns(bool){\n    require(_idToNftItem[tokenId].state == NftState.Offering, \"Nft state is not offering\");\n\n    address owner = ERC721.ownerOf(tokenId);\n    require(owner == msg.sender, \"Nft is not belong to you\");\n    _idToNftItem[tokenId].consumerKey = consumerKey;\n    _HashToNftItem[_idToNftItem[tokenId].dataHash].consumerKey = consumerKey;\n\n    address consumer = _idToNftItem[tokenId].consumer;\n    _beforeTokenTransfer(owner, consumer, tokenId);\n    _transfer(owner, consumer, tokenId);\n    _dividend(tokenId, owner);\n    _idToNftItem[tokenId].state = NftState.Minted;\n    _HashToNftItem[_idToNftItem[tokenId].dataHash].state = NftState.Minted;\n\n    return true;\n  }\n  \n  // \n  // \n  // offeringfailedEncrypting\n  // function updateKey(uint tokenId, string memory encryptedKey) public {\n  //   NftState state = _idToNftItem[tokenId].state;\n  //   require(state == NftState.Offering || state == NftState.Failed ||  state == NftState.Encrypting, \"Nft state is not offering or failed\");\n  //   require(ERC721.ownerOf(tokenId) == msg.sender, \"Nft is not belong to you\");\n\n  //   _idToNftItem[tokenId].encryptedKey = encryptedKey;\n  //   _HashToNftItem[_idToNftItem[tokenId].dataHash].encryptedKey = encryptedKey;\n\n  //   if (state == NftState.Offering || state == NftState.Failed){\n  //     _idToNftItem[tokenId].state = NftState.Encrypted;\n  //     _HashToNftItem[_idToNftItem[tokenId].dataHash].state = NftState.Encrypted;\n  //   }\n  //   if (state == NftState.Encrypting){\n  //     _idToNftItem[tokenId].state = NftState.Minted;\n  //     _HashToNftItem[_idToNftItem[tokenId].dataHash].state = NftState.Minted;\n  //   }\n  // }\n\n  // nftnftfailed\n  // function verifyEncryptedKey( uint tokenId ) public {\n  //   require(_idToNftItem[tokenId].state == NftState.Encrypted, \"Nft state is not encrypted\");\n  //   require(_idToNftItem[tokenId].consumer == msg.sender, \"you are not The consumer of this Nft\");\n\n  //   address owner = ERC721.ownerOf(tokenId);\n  //   _beforeTokenTransfer(owner, msg.sender, tokenId);\n  //   _transfer(owner, msg.sender, tokenId);\n  //   _dividend(tokenId, owner);\n  //   _idToNftItem[tokenId].state = NftState.Minted;\n  //   _HashToNftItem[_idToNftItem[tokenId].dataHash].state = NftState.Minted;\n    \n  // }\n  // // failed\n  // function refund( uint tokenId) public {\n  //   require(_idToNftItem[tokenId].state == NftState.Failed, \"Nft state is not failed\");\n  //   require(_idToNftItem[tokenId].consumer == msg.sender, \"you are not The consumer of this Nft\");\n\n  //   _idToNftItem[tokenId].state = NftState.Encrypting;\n  //   _HashToNftItem[_idToNftItem[tokenId].dataHash].state = NftState.Encrypting;\n\n  //   payable(msg.sender).transfer(_idToNftItem[tokenId].price);\n  // }\n\n\n\n\n  function placeNftOnSale(uint tokenId, uint newPrice) public payable {\n    require(ERC721.ownerOf(tokenId) == msg.sender, \"You are not owner of this nft\");\n    require(_idToNftItem[tokenId].isListed == false, \"Item is already on sale\");\n    require(msg.value == listingPrice, \"Price must be equal to listing price\");\n\n    _idToNftItem[tokenId].isListed = true;\n    _idToNftItem[tokenId].price = newPrice;\n    _HashToNftItem[_idToNftItem[tokenId].dataHash].isListed = true;\n    _HashToNftItem[_idToNftItem[tokenId].dataHash].price = newPrice;\n    _listedItems.increment();\n  }\n\n  // tokenId tokenID\n  // price token\n  // dataHash hash\n  // sign metadata\n  // proportion \n  // encrypedKey \n  function _createNftItem(\n    uint tokenId,\n    uint price,\n    bytes32 dataHash,\n    bytes memory sign,   \n    uint proportion,\n    string memory encryptedKey\n  ) private {\n    require(price > 0, \"Price must be at least 1 wei\");\n    require( proportion >= 0 && proportion <= 100 , \"proportion is out of range\");\n\n    NftItem memory item = _getNftItemByHash(dataHash);\n\n    item.state = NftState.Minted;\n    item.tokenId = tokenId;\n    item.price = price;\n    item.maxPrice = price;\n    item.creator = msg.sender;\n    item.isListed = true;\n    item.sign = sign;\n    item.proportion = proportion;\n    item.encryptedKey = encryptedKey;\n\n    _idToNftItem[tokenId] = item;\n    _HashToNftItem[dataHash] = item;\n\n    emit NftItemCreated(tokenId, price, msg.sender, true);\n  }\n\n  function _dividend(uint tokenId, address owner) internal {\n    address creator = _idToNftItem[tokenId].creator; \n    uint price = _idToNftItem[tokenId].price;\n    uint maxPrice = _idToNftItem[tokenId].maxPrice;\n    uint txCount = _idToNftItem[tokenId].txCount;\n    address testOrg = _idToNftItem[tokenId].testOrg;\n    bytes32 dataHash = _idToNftItem[tokenId].dataHash;\n    uint firstProportion = _idToNftItem[tokenId].firstProportion;\n    bool sustainProportion = _idToNftItem[tokenId].sustainProportion;\n    uint proportion = _idToNftItem[tokenId].proportion;\n\n    // \n    if ( txCount == 0 ){\n      if ( firstProportion == 0 ){\n        payable(creator).transfer(price);\n      }else if ( firstProportion == 100 ){\n        payable(testOrg).transfer(price);\n      }else {\n        payable(testOrg).transfer(price * firstProportion / 100);\n        payable(creator).transfer(price * ( 100 - firstProportion )/ 100);\n      }\n    }\n\n    // \n    if ( price > maxPrice && txCount != 0){\n      if( sustainProportion == false ){ //\n        if ( proportion == 0 ){  //\n          payable(owner).transfer(price);\n        }else if ( proportion == 100 ){ //\n          payable(creator).transfer( price - maxPrice );\n          payable(owner).transfer( maxPrice );\n        }else{  //\n          payable(creator).transfer( (price - maxPrice) * proportion / 100 );\n          payable(owner).transfer( price - (price - maxPrice) * proportion / 100 );\n        }\n      }else{   //\n        if ( proportion == 100 ) {    //\n          payable(creator).transfer( price - maxPrice );\n          payable(owner).transfer( maxPrice );\n        }else if ( proportion == 0 ){  //\n          payable(testOrg).transfer( (price - maxPrice) * firstProportion / 100 );\n          payable(owner).transfer( price - (price - maxPrice) * firstProportion / 100 );\n        }else{  //\n          payable(creator).transfer( (price - maxPrice) * proportion / 100 );\n          payable(testOrg).transfer( ((price - maxPrice) * (100 - proportion )/ 100 )* firstProportion / 100);\n          payable(owner).transfer( price - (price - maxPrice) * proportion / 100 \n          - ((price - maxPrice) * (100 - proportion )/ 100 )* firstProportion / 100 );\n        }\n      }\n\n      //\n      _idToNftItem[tokenId].maxPrice = price;\n      _HashToNftItem[dataHash].maxPrice = price;\n    }\n\n    if (price <=  maxPrice && txCount != 0){ //\n      payable(owner).transfer( price );\n    }\n\n    //\n    _idToNftItem[tokenId].txCount = txCount + 1;\n    _HashToNftItem[dataHash].txCount = txCount + 1;\n  }\n\n  function _beforeTokenTransfer(\n    address from,\n    address to,\n    uint tokenId\n  ) internal virtual{\n\n    // super._beforeTokenTransfer(from, to, tokenId, 1); \n\n    if (from == address(0)) {\n      _addTokenToAllTokensEnumeration(tokenId);\n    } else if (from != to) {\n      _removeTokenFromOwnerEnumeration(from, tokenId);\n    }\n\n    if (to == address(0)) {\n      _removeTokenFromAllTokensEnumeration(tokenId);\n    } else if (to != from) {\n      _addTokenToOwnerEnumeration(to, tokenId);\n    }\n  }\n\n  function _addTokenToAllTokensEnumeration(uint tokenId) private {\n    _idToNftIndex[tokenId] = _allNfts.length;\n    _allNfts.push(tokenId);\n  }\n\n  function _addTokenToOwnerEnumeration(address to, uint tokenId) private {\n    uint length = ERC721.balanceOf(to);\n    _ownedTokens[to][length] = tokenId;\n    _idToOwnedIndex[tokenId] = length;\n  }\n\n  function _removeTokenFromOwnerEnumeration(address from, uint tokenId) private {\n    uint lastTokenIndex = ERC721.balanceOf(from) - 1;\n    uint tokenIndex = _idToOwnedIndex[tokenId];\n\n    if (tokenIndex != lastTokenIndex) {\n      uint lastTokenId = _ownedTokens[from][lastTokenIndex];\n\n      _ownedTokens[from][tokenIndex] = lastTokenId;\n      _idToOwnedIndex[lastTokenId] = tokenIndex;\n    }\n\n    delete _idToOwnedIndex[tokenId];\n    delete _ownedTokens[from][lastTokenIndex];\n  }\n\n  function _removeTokenFromAllTokensEnumeration(uint tokenId) private {\n    uint lastTokenIndex = _allNfts.length - 1;\n    uint tokenIndex = _idToNftIndex[tokenId];\n    uint lastTokenId = _allNfts[lastTokenIndex];\n\n    _allNfts[tokenIndex] = lastTokenId;\n    _idToNftIndex[lastTokenId] = tokenIndex;\n\n    delete _idToNftIndex[tokenId];\n    _allNfts.pop();\n  }\n\n  // messageHash\n  function _recoverSigner(bytes32 dataHash, bytes memory signature) internal pure returns (address) {\n      \n      bytes32 message = ECDSA.toEthSignedMessageHash(dataHash);\n      return ECDSA.recover(message, signature);\n  }\n\n  // message\n  function _recoverSignerByMessage(string memory message, bytes memory signature) internal pure returns (address) {\n      bytes32 hash = keccak256(abi.encodePacked(message));\n      bytes32 ethMessage = ECDSA.toEthSignedMessageHash(hash);\n      return ECDSA.recover(ethMessage, signature);\n  }\n\n  // hashnftItemmint\n  function _getNftItemByHash(bytes32 hash) public view returns (NftItem memory){\n    return _HashToNftItem[hash];\n  }\n\n  // function _burn(uint256 tokenId) internal override(ERC721, ERC721URIStorage) {\n  //   super._burn(tokenId);\n  // }\n\n  // function tokenURI(uint256 tokenId)public view override(ERC721, ERC721URIStorage)returns (string memory){\n  //   return super.tokenURI(tokenId);\n  // }\n}\n",
  "sourcePath": "/Users/yang/Desktop/project/nft-marketplace/contracts/NftMarket.sol",
  "compiler": {
    "name": "solc",
    "version": "0.8.13+commit.abaa5c0e.Emscripten.clang"
  },
  "schemaVersion": "3.4.11",
  "updatedAt": "2023-02-25T11:34:06.057Z",
  "networkType": "ethereum",
  "devdoc": {
    "kind": "dev",
    "methods": {
      "approve(address,uint256)": {
        "details": "See {IERC721-approve}."
      },
      "balanceOf(address)": {
        "details": "See {IERC721-balanceOf}."
      },
      "getApproved(uint256)": {
        "details": "See {IERC721-getApproved}."
      },
      "isApprovedForAll(address,address)": {
        "details": "See {IERC721-isApprovedForAll}."
      },
      "name()": {
        "details": "See {IERC721Metadata-name}."
      },
      "owner()": {
        "details": "Returns the address of the current owner."
      },
      "ownerOf(uint256)": {
        "details": "See {IERC721-ownerOf}."
      },
      "renounceOwnership()": {
        "details": "Leaves the contract without owner. It will not be possible to call `onlyOwner` functions anymore. Can only be called by the current owner. NOTE: Renouncing ownership will leave the contract without an owner, thereby removing any functionality that is only available to the owner."
      },
      "safeTransferFrom(address,address,uint256)": {
        "details": "See {IERC721-safeTransferFrom}."
      },
      "safeTransferFrom(address,address,uint256,bytes)": {
        "details": "See {IERC721-safeTransferFrom}."
      },
      "setApprovalForAll(address,bool)": {
        "details": "See {IERC721-setApprovalForAll}."
      },
      "supportsInterface(bytes4)": {
        "details": "See {IERC165-supportsInterface}."
      },
      "symbol()": {
        "details": "See {IERC721Metadata-symbol}."
      },
      "tokenURI(uint256)": {
        "details": "See {IERC721Metadata-tokenURI}."
      },
      "transferFrom(address,address,uint256)": {
        "details": "See {IERC721-transferFrom}."
      },
      "transferOwnership(address)": {
        "details": "Transfers ownership of the contract to a new account (`newOwner`). Can only be called by the current owner."
      }
    },
    "version": 1
  },
  "userdoc": {
    "kind": "user",
    "methods": {},
    "version": 1
  }
}